8=FIX.4.4|9=70|35=A|49=CLIENT1|56=SERVER|34=1|52=20230817-10:00:00|98=0|108=30|141=Y|10=027|
8=FIX.4.4|9=115|35=D|49=CLIENT1|56=SERVER|34=2|52=20230817-10:01:00|11=BUY_001|17=EXEC_001|55=AAPL|54=1|38=100|40=2|44=150.00|59=0|10=151|
8=FIX.4.4|9=115|35=D|49=CLIENT1|56=SERVER|34=3|52=20230817-10:02:00|11=SELL_001|17=EXEC_002|55=MSFT|54=2|38=50|40=2|44=300.00|59=0|10=200|
8=FIX.4.4|9=76|35=H|49=CLIENT1|56=SERVER|34=4|52=20230817-10:03:00|11=BUY_001|55=AAPL|54=1|10=006|
8=FIX.4.4|9=111|35=F|49=CLIENT1|56=SERVER|34=5|52=20230817-10:04:00|11=CANCEL_001|41=BUY_001|55=AAPL|54=1|60=20230817-10:04:00|10=102|
8=FIX.4.4|9=69|35=5|49=CLIENT1|56=SERVER|34=6|52=20230817-10:05:00|58=Normal logout|10=169|

8=FIX.4.4|9=70|35=A|49=CLIENT2|56=SERVER|34=1|52=20230817-10:06:00|98=0|108=30|141=Y|10=034|
8=FIX.4.4|9=114|35=D|49=CLIENT2|56=SERVER|34=2|52=20230817-10:07:00|11=BUY_002|17=EXEC_003|55=MSFT|54=1|38=50|40=2|44=300.00|59=0|10=141|
8=FIX.4.4|9=70|35=A|49=CLIENT3|56=SERVER|34=1|52=20230817-10:08:00|98=0|108=30|141=Y|10=037|
8=FIX.4.4|9=117|35=D|49=CLIENT3|56=SERVER|34=2|52=20230817-10:09:00|11=BUY_003|17=EXEC_004|55=GOOGL|54=1|38=200|40=2|44=2500.00|59=0|10=052|
8=FIX.4.4|9=118|35=D|49=CLIENT3|56=SERVER|34=3|52=20230817-10:10:00|11=SELL_003|17=EXEC_005|55=GOOGL|54=2|38=150|40=2|44=2505.00|59=0|10=121|
8=FIX.4.4|9=69|35=A|49=CLIENT4|56=WRONG|34=1|52=20230817-10:11:00|98=0|108=30|141=Y|10=222|
8=FIX.4.4|9=76|35=D|49=CLIENT1|56=SERVER|34=7|52=20230817-10:12:00|11=BAD_001|55=AAPL|54=1|10=220|
8=FIX.4.4|9=115|35=D|49=CLIENT1|56=SERVER|34=8|52=20230817-10:13:00|11=BAD_002|17=EXEC_006|55=AAPL|54=1|38=100|40=2|44=-10.00|59=0|10=117|
8=FIX.4.4|9=70|35=A|49=CLIENT1|56=SERVER|34=1|52=20230817-10:14:00|98=0|108=30|141=Y|10=032|
8=FIX.4.4|9=105|35=D|49=CLIENT1|56=SERVER|34=2|52=20230817-10:15:00|11=MKT_001|17=EXEC_007|55=AAPL|54=1|38=100|40=1|59=0|10=210|
8=FIX.4.4|9=104|35=D|49=CLIENT1|56=SERVER|34=3|52=20230817-10:16:00|11=MKT_002|17=EXEC_008|55=AAPL|54=2|38=75|40=1|59=0|10=177|
8=FIX.4.4|9=52|35=0|49=CLIENT1|56=SERVER|34=4|52=20230817-10:17:00|10=207|
8=FIX.4.4|9=65|35=1|49=CLIENT1|56=SERVER|34=5|52=20230817-10:18:00|112=TEST_123|10=221|
